:020000040800F2
:10000000D805002045010008ED1800083D1800083B
:10001000411800085F020008552600080000000093
:10002000000000000000000000000000ED200008BB
:10003000A10600080000000061190008EF20000878
:100040005F0100085F0100085F0100085F01000810
:100050005F0100085F0100085F0100085F01000800
:100060005F0100085F0100085F0100085F010008F0
:100070005F0100085F0100085F0100085F010008E0
:100080005F0100085F0100085F0100085F010008D0
:100090005F0100085F0100085F0100085F010008C0
:1000A0005F0100085F0100085F0100085F010008B0
:1000B0005F0100085F0100085F0100085F010008A0
:1000C0005F0100085F0100085F0100085F01000890
:1000D0005F010008352600085F0100085F01000885
:1000E000A30600085F0100085F0100085F01000827
:1000F0005F0100085F0100085F0100085F01000860
:100100005F0100085F0100085F0100085F0100084F
:100110005F0100085F0100085F0100085F0100083F
:100120005F0100085F0100085F0100085F0100082F
:10013000DFF80CD000F072F800480047D92800081A
:10014000D80500200648804706480047FEE7FEE73E
:10015000FEE7FEE7FEE7FEE7FEE7FEE7FEE7FEE777
:100160009121000831010008202A04DB203A21FAFD
:1001700002F00021704721FA02F3D040C2F12002C0
:100180009140084319467047D2B201E000F8012BB4
:10019000491EFBD270470022F6E710B513460A4607
:1001A00004461946FFF7F0FF204610BD421C10F828
:1001B000011B0029FBD1801A70472DE9F05F05462D
:1001C000002092469B4688460646814640241BE016
:1001D0002846414647462246FFF7C6FF53465A4641
:1001E000C01A914110D311461846224600F028F853
:1001F0002D1A67EB01084F4622460120002100F02E
:100200001FF817EB00094E41201EA4F10104DFDCAA
:10021000484631462A464346BDE8F09F064C074D06
:1002200006E0E06840F0010394E8070098471034C6
:10023000AC42F6D3FFF780FF902D0008B02D0008E8
:10024000202A04DB203A00FA02F100207047914096
:10025000C2F1200320FA03F319439040704700BF16
:10026000FEE7000070B505462C462078012800D036
:1002700070BDE078801DC1B2204601F055FB00B191
:10028000F6E7A078144908706078052818D2DFE8EE
:1002900000F003070B0F1300204600F021F813E0D5
:1002A000204600F033F80FE0204600F04FF80BE056
:1002B000204600F063F807E0204600F0BDF803E0B8
:1002C00001200649087000BF00BF0448017820469D
:1002D00000F0BEF900BFCBE734000020350000205D
:1002E000417859B9817829B90021064A1170064A26
:1002F000117006E00221044A117002E00121024A55
:10030000117070472E00002035000020417801292F
:1003100014D1817829B900210A4A11700A4A117052
:100320000FE08178012905D1064A11700021064AA3
:10033000117006E00221044A117002E00121024A14
:10034000117070472E0000203500002041780229EE
:100350000BD1084A1170817819B90021064A117031
:1003600006E00221044A117002E00121024A1170E4
:10037000704700002E000020350000202B4A127824
:10038000042A03D103222A4B1A7070474278032AA9
:1003900046D1264B1A708278E2B9C278022A03D07D
:1003A0000422234B1A70F0E701794FF6FF7202EA3C
:1003B000012142790A4491B2B1F57A7F04DB40F21F
:1003C000E7321C4B1A6001E01A4A11600022184BF8
:1003D0001A7028E08278012A1ED1C278022A03D03E
:1003E0000422134B1A70D0E701794FF6FF7202EA2C
:1003F000012142790A4491B2B1F57A7F05DB40F2DE
:10040000E7320C4B0C331A6002E00A4A0C321160DE
:100410000022074B1A7006E00222054B1A7002E018
:100420000122034B1A7000BFAFE700002E0000202E
:1004300035000020342C01402DE9F0410546687854
:10044000042875D178490870A87800283BD1E8784D
:10045000032802D0E878052830D1002428E00120C4
:10046000A040C6B22879304000B91FE0204601F014
:10047000D9FD0120A0406D49097808436B490870F7
:10048000022000EB4401281D415C012000EB4402E6
:10049000281D805C01EB002007B2C4EBC401644A54
:1004A00002EB8100394601F0F3FD00BF601CC4B2CD
:1004B000022CD4DB00205F490870B3E004205D49C2
:1004C0000870BDE8F081A878012829D1E8780728CC
:1004D00002D0E8780D281FD1002417E00120A040A9
:1004E000C6B22879304000B90EE004EB4402012383
:1004F00003EB42032A1D9918C4EBC4024C4B03EBD7
:10050000820001F0CCFD00BF601CC4B2022CE5DB10
:1005100000204849087085E0042046490870D0E76B
:10052000A878022821D1E87801281AD1002412E005
:1005300075E00120A040C6B22879304000B908E03B
:10054000204601F06FFD39480078B0433749087004
:1005500000BF601CC4B2022CEBDB002035490870E0
:1005600060E0042033490870ABE7A87803282ED157
:10057000E878022827D16879297900EB01202E49F3
:100580000870087800EBD0714910A0EB410121B14F
:1005900029480078401C284908702749087800EB52
:1005A000D0714910244A117010460078142803DCD9
:1005B00010460078022802DA14201F490870002033
:1005C0001C4908702EE004201A49087079E7A878C1
:1005D00004281DD1E878012816D113490870002499
:1005E0000CE00120A040C6B22879304000B903E0F9
:1005F000204601F017FD00BF601CC4B2022CF0DBE6
:1006000000200C4908700DE004200A49087058E7E2
:1006100000200549087002200649087002E0012008
:100620000449087000BF4CE72E0000202B0000207A
:100630009C010020350000202C00002010B504464D
:10064000E078801DC1B2204601F0D2FC10BD000050
:1006500070B504460D4620780A49087060784870E5
:10066000A07888700120C87008460571C078001D08
:10067000C1B2204601F058F90646311201484171D5
:10068000867170BD740100200020034908700120AC
:100690000249087070470000340000202E0000203E
:1006A000704710B54FF4004000F004F810BD7047DB
:1006B0007047000010B5044604480068204020B18F
:1006C000024804602046FFF7F3FF10BD1404014008
:1006D0002DE9F84702460024002000258446002723
:1006E00000237BE14FF0010808FA03F4D1F8008001
:1006F00008EA0400A0427DD1DFF8ECA2D1F8048022
:10070000A8EB0A09D0453AD014DCB8F1030F50D059
:1007100009DCB8F1000F31D0B8F1010F1CD0B8F1ED
:10072000020F49D120E0B8F1110F18D0B8F1120F23
:1007300042D11EE0B9F5881F25D006DCB9F5803F0F
:1007400020D0B9F5801F37D11AE0B9F5001F18D0B5
:10075000B9F5041F30D117E0D1F80CC02DE0D1F865
:100760000C8008F1040C28E0D1F80C8008F1080C8A
:1007700023E0D1F80C8008F10C0C1EE000BF00BF94
:1007800000BF00BF00BF00BFD1F80880B8F1000F64
:1007900002D14FF0040C0BE0D1F80880B8F1010F42
:1007A00003D14FF0080C146102E04FF0080C5461C3
:1007B00003E04FF0000C00E000BF00BFFF2801D8AD
:1007C000904601E002F104084646FF2802D84FEAAD
:1007D000830803E0A3F108084FEA88084746D6F8E3
:1007E00000804FF00F0909FA07F928EA09080CFA06
:1007F00007F900E07AE048EA0908C6F80080D1F875
:10080000048008F08058B8F1805F6FD100BFDFF836
:10081000DC81D8F8188048F00108DFF8D091C9F8D9
:100820001880C846D8F8188008F00108CDF8008074
:1008300000BF00BF4FEAB9384FEA930958F8295072
:100840004FEA83784FEA18794FF00F0808FA09F851
:1008500025EA0805DFF89881424502D14FF00008EB
:1008600024E0DFF89081424502D14FF001081DE0FD
:10087000DFF88481424502D14FF0020816E0DFF82C
:100880007C81424502D14FF003080FE0DFF8708110
:10089000424502D14FF0040808E0DFF86881424584
:1008A00002D14FF0050801E04FF006084FEA8379C6
:1008B0004FEA197908FA09F848EA0505DFF848818E
:1008C0004FEA930948F82950D1F8048008F4803899
:1008D000B8F5803F0BD1DFF83481D8F8008048EAC2
:1008E0000008DFF82891C9F800800AE075E0DFF819
:1008F0001C81D8F8008028EA0008DFF81091C9F8B8
:100900000080D1F8048008F40038B8F5003F0ED11B
:10091000DFF8F88008F10408D8F8008048EA0008F9
:10092000DFF8E89009F10409C9F800800DE0DFF86C
:10093000DC8008F10408D8F8008028EA0008DFF815
:10094000CC9009F10409C9F80080D1F8048008F4BA
:100950008018B8F5801F0ED1DFF8B08008F10808C4
:10096000D8F8008048EA0008DFF8A09009F10809EB
:10097000C9F800800DE0DFF8948008F10808D8F885
:10098000008028EA0008DFF8849009F10809C9F816
:100990000080D1F8048008F40018B8F5001F0ED1CB
:1009A000DFF8688008F10C08D8F8008048EA0008F1
:1009B000DFF8589009F10C09C9F800800DE0DFF864
:1009C0004C8008F10C08D8F8008028EA0008DFF80D
:1009D0003C9009F10C09C9F800805B1C102BFFF456
:1009E00081AEBDE8F8870000000011100010024041
:1009F00000080140000C01400010014000140140BB
:100A000000180140001C01400800014000040140A2
:100A10000AB1016101E00B040361704701480068FD
:100A2000704700001400002003480068034909785B
:100A30000844014908607047140000201C00002091
:100A400010B50848006840F010000649086003200F
:100A500000F0A6F8002000F007F800F02BF80020C6
:100A600010BD00000020024070B504460E4800781A
:100A70004FF47A71B1FBF0F00C490968B1FBF0F565
:100A8000284600F019FC08B1012070BD102C07D2D7
:100A900000222146501E00F044F80548046001E0A1
:100AA0000120F2E70020F0E71C00002020000020D9
:100AB0001800002008B500BF1148806940F001000F
:100AC0000F4988610846806900F00100009000BF6E
:100AD00000BF00BF0846C06940F08050C8610846AA
:100AE000C06900F08050009000BF00BF00BF054902
:100AF000486820F0E06040F00070486000BF08BD2A
:100B0000001002400000014000BF00F01F02012160
:100B100091404209920002F1E022C2F8001100BFA8
:100B200070472DE9F05F80460D461646002700F01D
:100B3000DFFE074639462A46334601F00700C0F17A
:100B4000070ABAF1040F02D94FF0040A01E0C0F11C
:100B5000070AD14600F1040ABAF1070F02D24FF09A
:100B6000000A01E0A0F1030AD4464FF0010A0AFA94
:100B700009FAAAF1010A0AEA020A0AFA0CFA4FF083
:100B8000010B0BFA0CFBABF1010B0BEA030B4AEA6E
:100B90000B042146404600F0B3FEBDE8F09F000084
:100BA00000BF00F00702064B19684FF6FF0319401B
:100BB000044B0B4343EA0221014B196000BF70470D
:100BC0000CED00E00000FA0570B504460D46002665
:100BD0006D48006800F00700A8420ED26A4800681D
:100BE00020F007002843684908600846006800F0C4
:100BF0000700A84201D0012070BD207800F002005B
:100C000002281DD1207800F00400042805D15F4897
:100C1000406840F4E0605D494860207800F00800DA
:100C2000082805D15948406840F460505749486049
:100C30005648406820F0F000A168084353494860D6
:100C4000207800F0010000285DD06068012806D1FE
:100C50004E48006800F4003090B90120CCE760688D
:100C6000022806D14948006800F0007040B9012010
:100C7000C2E74648006800F0020008B90120BBE75F
:100C80004248406820F00300616808433F494860DB
:100C9000FFF7C4FE06466068012810D108E0FFF7A0
:100CA000BDFE801B41F28831884201D90320A3E7B1
:100CB0003648406800F00C000428F0D123E060685A
:100CC000022810D108E0FFF7A9FE801B41F288310D
:100CD000884201D903208FE72C48406800F00C00BF
:100CE0000828F0D10FE008E0FFF798FE801B41F2E2
:100CF0008831884201D903207EE72448406800F00B
:100D00000C000028F0D12048006800F00700A8423D
:100D10000ED91D48006820F0070028431A490860D2
:100D20000846006800F00700A84201D0012063E7F0
:100D3000207800F00400042807D11448406820F40B
:100D4000E060E168084311494860207800F008003D
:100D5000082808D10D48406820F46050216940EA15
:100D6000C1000A49486000F03DF808494968C1F3EC
:100D70000311074A515CC840064908600020FFF78C
:100D800073FE002038E700000020024000100240FF
:100D9000682B000820000020014800687047000010
:100DA0002000002000B5FFF7F7FF04494968C1F3B0
:100DB0000221034A515CC84000BD000000100240FF
:100DC000782B000800B5FFF7E7FF04494968C1F335
:100DD000C221034A515CC84000BD0000001002401F
:100DE000782B0008F0B585B00FF26C0C9CE8E01091
:100DF00001A8A0E8E0101CA52D68009500210022A4
:100E0000002300240020194D696801F00C05F5B19C
:100E1000042D02D0082D19D101E0154819E001ADCB
:100E2000C1F38346AC5D01F4803555B10F4D6D685B
:100E3000C5F340451DF805200D4D6543B5FBF2F3A4
:100E400002E00C4D04FB05F3184602E000BF084821
:100E500000BF00BF05B0F0BD020304050607080986
:100E60000A0B0C0D0E0F10100102000000100240C2
:100E700000127A0000093D00F8B5044600252078EC
:100E800000F00100002878D0F848406800F00C001D
:100E900004280CD0F548406800F00C00082811D157
:100EA000F248406800F48030B0F5803F0AD1EF4846
:100EB000006800F4003000285FD0606800285CD132
:100EC0000120F8BD00BF6068B0F5803F06D1E7485B
:100ED000006840F48030E549086028E0606858B94F
:100EE000E248006820F48030E04908600846006865
:100EF00020F4802008601AE06068B0F5A02F0BD1C4
:100F0000DA48006840F48020D84908600846006844
:100F100040F4803008600AE0D448006820F4803053
:100F2000D24908600846006820F48020086000BFAD
:100F3000606888B1FFF772FD054606E0FFF76EFDB9
:100F4000401B642801D90320BBE7C848006800F4AF
:100F500000300028F2D010E0FFF760FD054606E003
:100F6000FFF75CFD401B642801D90320A9E7BF48B7
:100F7000006800F400300028F2D1207800F0020070
:100F8000022857D1B948406800F00C0050B1B7486A
:100F9000406800F00C00082818D1B448406800F4FC
:100FA000803098B9B148006800F0020020B1206993
:100FB000012801D0012084E7AC48006820F0F80047
:100FC000616940EAC100A949086033E02069E8B1DD
:100FD0000120A7490860FFF721FD054606E0FFF75D
:100FE0001DFD401B022801D903206AE79F480068C5
:100FF00000F002000028F2D09C48006820F0F800C1
:10100000616940EAC1009949086013E000209849ED
:101010000860FFF703FD054606E0FFF7FFFC401BF5
:10102000022801D903204CE79048006800F0020034
:101030000028F2D1207800F0080008282DD1A069FE
:10104000B8B101208B490860FFF7E8FC054606E0CF
:10105000FFF7E4FC401B022801D9032031E7834855
:10106000406A00F002000028F2D0012001F02AF8C6
:1010700013E000207F490860FFF7D0FC054606E03A
:10108000FFF7CCFC401B022801D9032019E7774861
:10109000406A00F002000028F2D1207800F004003D
:1010A000042873D100267148C06900F0805070B9DF
:1010B00000BF6E48C06940F080506C49C861084666
:1010C000C06900F08050009000BF00BF01266A4850
:1010D000006800F48070B0B96748006840F4807020
:1010E00065490860FFF79AFC054606E0FFF796FCA5
:1010F000401B642801D90320E3E65F48006800F440
:1011000080700028F2D000BFE068012806D157485F
:10111000006A40F001005549086227E0E06858B9CC
:101120005248006A20F00100504908620846006AEF
:1011300020F00400086219E0E06805280BD14B4854
:10114000006A40F00400494908620846006A40F01D
:10115000010008620AE04548006A20F001004349A6
:1011600008620846006A20F00400086200BFE068D8
:10117000A0B1FFF753FC054609E0FFF74FFC401B09
:1011800041F28831884202D903209AE622E03748AA
:10119000006A00F002000028EFD012E0FFF73EFCEA
:1011A000054608E0FFF73AFC401B41F288318842CF
:1011B00001D9032085E62D48006A00F002000028CE
:1011C000F0D1012E05D12948C06920F0805027496F
:1011D000C86100BFE069C8B32448406800F00C0053
:1011E000082860D0E069022848D10020204908661C
:1011F000FFF714FC054606E0FFF710FC401B022831
:1012000001D903205DE61948006800F0007000284D
:10121000F2D1206AB0F5803F07D11448406820F42D
:101220000030A168084311494860D4E90801084327
:101230000E49496821F4741108430C4948600120A3
:101240000B490866FFF7EAFB054607E02DE0FFF7CC
:10125000E5FB401B022801D9032032E60348006861
:1012600000F000700028F2D01FE0000000100240E3
:1012700000004242800442420070004000200C49BD
:101280000866FFF7CBFB054606E0FFF7C7FB401BF0
:10129000022801D9032014E60648006800F0007017
:1012A0000028F2D101E001200BE6002009E6000051
:1012B000000042420010024070B504462546681EF8
:1012C000B0F1807F01D301200FE0681E4FF0E021D4
:1012D00048610F214FF0FF3000F012FB00204FF06B
:1012E000E021886107200861002070BD024600BF30
:1012F00092F83C00012801D102207047012082F8B9
:101300003C0000BF022082F83D001068406820F0D9
:10131000700013685860106840680B6818431368C1
:1013200058601068806820F080001368986010682A
:1013300080684B68184313689860012082F83D006C
:1013400000BF002082F83C0000BF00BFD5E72DE9B8
:10135000F04104460D464FF000080026002714B95E
:101360000120BDE8F08194F83D0028B9002084F800
:101370003C00204600F046F8022084F83D0020683A
:10138000806820F0070021688860211D206800F037
:101390002BFF2068D0F80880206886692068076ADB
:1013A000286840EA080840F203308643A969A86823
:1013B00040EA0120064340F60C4086434FF2F0001D
:1013C0008643E969E86840EA01200643286900018C
:1013D000296A40EA0130064327F0220727F08807F0
:1013E0006969686840EA011007432068C0F808800E
:1013F0002068866120680762012084F83D00002093
:10140000AFE7000010B586B00446002002900390BC
:10141000049005902068B0F1804F24D100BF274888
:10142000C06940F001002549C8610846C06900F064
:101430000100019000BF00BF00BF0846806940F076
:10144000040088610846806900F00400019000BF34
:1014500000BF0320029000200390049002A91848C6
:10146000FFF736F927E017492068884223D100BFEB
:101470001248C06940F004001049C8610846C069BC
:1014800000F00400019000BF00BF00BF0846806963
:1014900040F0080088610846806900F0080001906B
:1014A00000BF00BFC020029000200390049002A95A
:1014B0000548FFF70DF906B010BD0000001002400E
:1014C0000008014000080040000C014030B504460F
:1014D0000D4615B1042D0CD105E001220021206834
:1014E00000F0CEFE10E001220421206800F0C8FECA
:1014F0000AE001220021206800F0C2FE012204213E
:10150000206800F0BDFE00BF00BF2068006840F00A
:10151000010021680860002030BD000010B586B0D1
:101520000446002002900390049005900F49206823
:10153000884218D100BF0E48806940F004000C4971
:1015400088610846806900F00400019000BF00BF78
:101550004FF410600290022003900320059002A92E
:101560000448FFF7B5F806B010BD0000002C01409C
:10157000001002400008014070B504460D461646B2
:1015800000BF94F83C00012801D1022070BD012069
:1015900084F83C0000BF022084F83D0036B1042EE0
:1015A0001BD0082E31D00C2E5ED145E02946206894
:1015B00000F074FE2068806940F0080021688861AE
:1015C0002068806920F004002168886120688069B3
:1015D000296908432168886147E02946206800F0AE
:1015E00099FE2068806940F4006021688861206865
:1015F000806920F480602168886120688069296999
:1016000040EA0120216888612FE02946206800F027
:10161000C1FE2068C06940F008002168C8612068E8
:10162000C06920F004002168C8612068C069296988
:1016300008432168C86118E02946206800F0EAFEE6
:101640002068C06940F400602168C8612068C069F2
:1016500020F480602168C8612068C069296940EA77
:1016600001202168C86100E000BF00BF012084F8AC
:101670003D0000BF002084F83C0000BF00BF85E7AC
:1016800010B504460CB9012010BD94F83D0028B9EE
:10169000002084F83C00204600F00CF8022084F87A
:1016A0003D00211D206800F09FFD012084F83D00D1
:1016B0000020E9E708B5094A016891420DD100BF51
:1016C0000749896941F40061054A916111468969B8
:1016D00001F40061009100BF00BF08BD002C014073
:1016E0000010024030B504460D460122294620680C
:1016F00000F0C6FD0C492068884203D00B492068E1
:10170000884201D1012000E0002028B12068406C0F
:1017100040F40040216848642068006840F00100FF
:1017200021680860002030BD002C014000340140D9
:1017300010B504460CB9012010BDA06900B100E04D
:1017400000BF94F8390028B9002084F838002046FA
:1017500000F028F8242084F839002068C06820F4BC
:1017600000502168C860204600F080FE20680069B3
:1017700020F49040216808612068406920F02A0028
:10178000216848612068C06840F400502168C86042
:101790000020E063202084F8390084F83A0000201B
:1017A000CAE7000010B586B00446002002900390FE
:1017B000049005901E492068884236D100BF1D481C
:1017C000806940F480401B4988610846806900F4C4
:1017D0008040019000BF00BF00BF0846806940F014
:1017E000040088610846806900F00400019000BF91
:1017F00000BF48150290022003900320059002A923
:101800000D48FEF765FF4FF48060029000200390C2
:10181000049002A90848FEF75BFF0022042125205E
:10182000FFF77FF92520FFF76FF906B010BD000024
:1018300000380140001002400008014000BFFEE7F0
:1018400000BFFEE770B504460E46022E00DD70BDF7
:10185000B4F90800002806DBB4F90600B4F9081052
:10186000401AE06005E0B4F90600B4F90810084435
:10187000E060B4F90000E1684843B4F90210E2689E
:1018800001FB02001146626911440223226903FB35
:101890001211B4F9042002FB010520696061E068BF
:1018A0002061002D05DD0F4850F8261001208847E3
:1018B00006E0002D04DA0B4850F826100220884775
:1018C000002D01DD284600E068420546B5F57A7F27
:1018D00004DB40F2E7300449086001E0024805609B
:1018E00000BFB4E7882D0008342C01407047000089
:1018F00002480068C0F30220704700000CED00E0D1
:1019000010B5002807DA0A07140E054A00F00F0385
:101910001B1FD45403E00A07130E024A135410BDD0
:1019200018ED00E000E400E070B502460C46FF252B
:10193000FF2309E012F8010B80EA05010648405C2C
:1019400080EA03050548435C201EA4F10106F4B2B9
:10195000F0D143EA052070BD882B0008882C0008D0
:101960007047000000B585B0002001900290039000
:10197000049000BF4C48806940F010004A498861DB
:101980000846806900F01000009000BF00BF00BF53
:101990000846806940F0200088610846806900F0B0
:1019A0002000009000BF00BF00BF0846806940F0E3
:1019B000040088610846806900F00400009000BFC0
:1019C00000BF00BF0846806940F0080088610846F3
:1019D000806900F00800009000BF00BF01222021B4
:1019E0003248FFF715F82020019001200290039063
:1019F0000320049001A92D48FEF76AFE0022102161
:101A00002B48FFF705F81020019001200290039069
:101A10000320049001A92648FEF75AFE0022202147
:101A20002348FEF7F5FF202001900120029003904B
:101A30000320049001A91E48FEF74AFE002202215D
:101A40001B48FEF7E5FF0220019001200290039061
:101A50000320049001A91648FEF73AFE0022042153
:101A60001348FEF7D5FF0420019001200290039057
:101A70000320049001A90E48FEF72AFE4FF400400F
:101A800001900C4802900120039001A90A48FEF73A
:101A90001FFE002211462820FFF743F82820FFF7F9
:101AA00033F805B000BD000000100240000C0140FA
:101AB0000010014000001110000801401CB51B4B34
:101AC0000ACBCDE9001302280DDD002108E0002338
:101AD000174C44F8313004EBC104A3804B1CD9B23D
:101AE0000229F4DB1CBD5DF82010496A09B2104BD5
:101AF00003EBC00399800E4901EBC0018A8802EB19
:101B0000820149000AB20A4951F830101144084BC9
:101B100043F83010194601EBC0018A804FF40041B0
:101B20005DF82030596200BFDCE70000802B000820
:101B3000F800002030B94FF48011104A11614900BB
:101B4000116118E0012805D101050C4A116120211D
:101B5000116110E0022805D11021084A1161010528
:101B6000116108E0032805D11021044A11612021E8
:101B7000116100E0704700BFFCE700000010014069
:101B800030B94FF40031104A11614900116118E079
:101B9000012805D141040C4A11610421116110E0B2
:101BA000022805D10221084A11614104116108E0AF
:101BB000032805D10221044A11610421116100E0CA
:101BC000704700BFFCE700000010014000B591B075
:101BD00000200F9010901C2108A8FEF7DCFA1C21B1
:101BE00001A8FEF7D8FA2248224908604720486039
:101BF00000212048816040F2E731C160002101618D
:101C0000416180218161FFF73BFD08B1FEF74FFD87
:101C100000200F9010900FA91648FFF767FB08B13E
:101C2000FEF745FD60200890002009900A900B9077
:101C30000C900D900E90002208A90E48FFF79CFC16
:101C400008B1FEF734FD0C2208A90A48FFF794FCFE
:101C500008B1FEF72CFD0748FFF760FC002105489E
:101C6000FFF740FD0C210348FFF73CFD11B000BD1C
:101C7000002C01403800002000B58BB0242102A8C0
:101C8000FEF789FA0020009001904FF0804019493A
:101C90000860002048600021164881604FF6FF71FF
:101CA000C160002101618161032002900020039046
:101CB00001200490002005900690079001200890D4
:101CC000002009900A9002A90A48FFF740FB08B1DA
:101CD000FEF7EDFC00200090019069460548FFF7F3
:101CE00005FB08B1FEF7E3FC18210248FFF7EEFB05
:101CF0000BB000BD7800002000B58BB0242102A8F5
:101D0000FEF749FA0020009001901A481A4908602D
:101D1000002048600021184881604FF6FF71C160C3
:101D200000210161816103200290002003900120C5
:101D30000490002005900690079001200890002054
:101D400009900A9002A90C48FFF701FB08B1FEF7C1
:101D5000AEFC00200090019069460748FFF7C6FAE4
:101D600008B1FEF7A4FC18210348FFF7AFFB0BB046
:101D700000BD000000080040B800002010B5FFF7CB
:101D800025FFFFF779FFFFF7B7FF0020094908603B
:101D9000888088600021074881814FF40040C1039A
:101DA0004862054908600020FFF788FE0120FFF720
:101DB00085FE10BDF80000202408004000B500207A
:101DC000FFF77CFE0120FFF779FE00BD094800689F
:101DD00020F020000749086006480830006820F01D
:101DE00001000449083108600846006820F001003D
:101DF000086070470C38014010B500F025F808B9AC
:101E0000002010BD0A48006840F48070084908604E
:101E100007480830006840F00100054908310860B3
:101E20000348006840F02000014908600120E8E70D
:101E30000C38014000B5FFF7C9FF012001490870C7
:101E400000BD00002800002000211DE001EB410042
:101E500000EBC1000E4A12F8100098B9002001EB07
:101E6000410202EBC1020A4B03EB4202507001EB4C
:101E7000410000EBC1001A4602EB4000054A106029
:101E800001207047481CC1B20229DFDB0020F8E7BF
:101E900048010020240000200C48006808B90020F8
:101EA00070470A480068407830B1084800684078B8
:101EB00007490978884206D00448006840780449F8
:101EC00008700020ECE70120EAE700002400002071
:101ED0002900002010B500200F49087000F070F8AC
:101EE0000E480F4908604FF4E130486000210C486B
:101EF00081604FF40051C160002101610C214161FA
:101F000000218161C161FFF713FC08B1FEF7CFFB2F
:101F1000FFF772FF10BD00002800002000380140CC
:101F20000801002010B511480078012803D1FFF7FF
:101F3000D1FFFEF7A9FBFFF7AFFF90B10C48007887
:101F4000401C0B4908700846007805280CD1094848
:101F50000068801CFEF786F90648006800F042F829
:101F600002E000200249087010BD00002800002097
:101F70002A0000202400002000B50F48006820B18E
:101F80000D4800684078142802DBFFF71FFF00BDF2
:101F90000A480068C1B208480068427806480068EC
:101FA0004078401C044B1B68587003480068801C34
:101FB000815400BFEBE700002400002004380140FA
:101FC000002009E0002100EB400202EBC002044BBC
:101FD00003F81210411CC8B20228F3DB704700005E
:101FE0004801002018B100214170017000207047A5
:101FF00010B5282900DD282100220DE010F8013B52
:10200000074C236000BF064B1B1F1B6803F08003B7
:10201000802BF8D1531CDAB28A42EFDB10BD0000EE
:1020200004380140022800DB70470021C0EBC002E9
:10203000164B23F82210C0EBC00203EB8202518042
:10204000C0EBC00203EB82029180C0EBC00203EB45
:102050008202D180C0EBC00203EB8202D160C0EBF0
:10206000C00203EB82021181C0EBC00203EB8202CB
:102070001161C0EBC00203EB82025161C0EBC002F0
:1020800003EB8202916100BFCEE700009C010020BB
:10209000B1F5004F01DB47F6FF71C18070474A7808
:1020A0000B7802EB032212B20280CA788B7802EB23
:1020B000032212B242804A790B7902EB032212B258
:1020C0008280704708B508490968C9084FF47A72D8
:1020D000B1FBF2F14143009100BF00BF00994A1EDD
:1020E00000920029F9D108BD20000020704710B5EA
:1020F000FEF79AFC10BD000010B5FEF78FFC0849F2
:1021000008600846006807490968401A022805D394
:102110000348006803490860012010BD0020FCE767
:10212000040000200800002000B58FB0282105A879
:10213000FEF731F814216846FEF72DF801200590CE
:1021400000040690002007900120099002200C90C6
:10215000C1030D914FF4E0110E9105A8FEF78CFE1E
:1021600008B1FEF7A4FA0F20009002200190002091
:1021700002904FF480600390002004900221684692
:10218000FEF722FD08B1FEF792FA0FB000BD000085
:102190001148006840F001000F4908600846406897
:1021A0000E4908400C494860084600680C49084040
:1021B000094908600846006820F480200860084645
:1021C000406820F4FE0048604FF41F008860C80398
:1021D0000449086070470000001002400000FFF84A
:1021E000FFFFF6FE08ED00E0002202681F4B984258
:1021F0000ED01F4B98420BD0B0F1804F08D01D4B32
:10220000984205D01C4B984202D01C4B984203D1F7
:1022100022F070024B681A43144B98420ED0144BB4
:1022200098420BD0B0F1804F08D0124B984205D0A5
:10223000114B984202D0114B984203D122F44072C4
:10224000CB681A4322F080024B691A4302608B6804
:10225000C3620B688362054B984202D0044B9842DC
:1022600001D10B690363012343617047002C0140D6
:10227000003401400004004000080040000C004011
:1022800030B50023012404FA01F3046A9C4304627C
:10229000046A02FA01F52C43046230BD30B5002413
:1022A00000220023056A25F001050562026A4368E1
:1022B000846924F0700424F003040D682C4322F098
:1022C00002028D682A43114DA84200D103E0104D4F
:1022D000A84206D100BF22F00802CD682A4322F0AE
:1022E00004020A4DA84202D0094DA84207D123F4A6
:1022F000807323F400734D692B438D692B43436036
:1023000084614D684563026230BD0000002C0140CD
:102310000034014030B5002400220023056A25F076
:1023200010050562026A4368846924F4E04424F4D9
:1023300040740D6844EA052422F020028D6842EAC8
:102340000512124DA84200D103E0114DA84207D159
:1023500000BF22F08002CD6842EA051222F040025E
:102360000A4DA84202D00A4DA84209D123F4806345
:1023700023F400634D6943EA85038D6943EA8503CD
:10238000436084614D688563026230BD002C01406A
:102390000034014030B5002400220023056A25F4F2
:1023A00080750562026A4368C46924F0700424F0F1
:1023B00003040D682C4322F400728D6842EA052262
:1023C000124DA84200D103E0114DA84207D100BF31
:1023D00022F40062CD6842EA052222F480620B4DAD
:1023E000A84202D00A4DA84209D123F4805323F415
:1023F00000534D6943EA05138D6943EA05134360B1
:10240000C4614D68C563026230BD0000002C01400C
:102410000034014030B5002200230024056A25F471
:1024200080550562036A4468C26922F4E04222F4DE
:1024300040720D6842EA052223F400538D6843EA96
:102440000533084DA84202D0074DA84204D124F418
:1024500080444D6944EA85144460C2614D68056456
:10246000036230BD002C0140003401402DE9F041F1
:10247000044600252068006920F44050E1680843C4
:10248000216808612169A068084361690843054320
:102490002068C06841F20C61884328432168C86005
:1024A0002068406920F44070A169084321684861B0
:1024B0005F49206888425CD1FEF784FC00EBC001D4
:1024C00001EB001061688900B0FBF1F6FEF77AFCC1
:1024D00000EBC00101EB001061688900B0FBF1F076
:1024E0006421B0FBF1F000EBC00101EB0010A6EBA2
:1024F0008000322101EB00106421B0FBF1F000F00C
:10250000F006FEF75FFC00EBC00101EB0010616814
:102510008900B0FBF1F06421B0FBF1F006EB00168E
:10252000FEF750FC00EBC00101EB00106168890070
:10253000B0FBF1F7FEF746FC00EBC00101EB001029
:1025400061688900B0FBF1F06421B0FBF1F000EBB1
:10255000C00101EB0010A7EB8000322101EB00105D
:102560006421B0FBF1F000F00F0030442168886076
:102570005BE0FEF717FC00EBC00101EB00106168A7
:102580008900B0FBF1F6FEF70DFC00EBC00101EB9A
:10259000001061688900B0FBF1F06421B0FBF1F03C
:1025A00000EBC00101EB0010A6EB8000322101EB33
:1025B00000106421B0FBF1F000F0F006FEF7F2FB32
:1025C00000EBC00101EB001061688900B0FBF1F085
:1025D0006421B0FBF1F006EB0016FEF7E3FB00EB25
:1025E000C00101EB001061688900B0FBF1F7FEF754
:1025F000D9FB00EBC00101EB001061688900B0FB62
:10260000F1F06421B0FBF1F000EBC00101EB001030
:10261000A7EB8000322101EB00106421B0FBF1F048
:1026200000F00F00304421688860BDE8F0810000B0
:102630000038014010B500BF05480068C0F34010E5
:1026400010B1FFF799FC01E0FFF7F4FB10BD0000AB
:102650000038014000BFFEE70FB4084B10B504A9D5
:1026600002AA039800F01CF8044602A9002000F01A
:102670002DF9204610BC5DF814FB0000CD280008A1
:1026800002E008C8121F08C1002AFAD1704770473B
:10269000002001E001C1121F002AFBD17047000099
:1026A0002DE9FF4F8BB09A460F460446002606E000
:1026B00025280BD052460D999047641C761C207833
:1026C0000028F5D10FB03046BDE8F08F0025A946AF
:1026D00001227D4900E0054314F8013F203B02FA46
:1026E00003F00842F7D120782E2817D114F8010FF3
:1026F00045F004052A280ED06FF02F022078A0F1B3
:10270000300109290AD809EB890102EB410100EBEC
:102710000109641CF2E757F8049B641C20786C28BC
:102720000DD004DC4C2812D06A2811D104E07428A2
:102730000DD07A280CD10AE045F4001507E0617845
:1027400045F48015814202D1641C05F58015641C96
:10275000207869283ED006DC0028B3D063280BD04F
:10276000642804D136E0732810D075285CD0524616
:102770000D999047761CA5E017F8040B8DF8000022
:1027800000208DF80100E846012003E057F8048B93
:102790004FF0FF3069074FF0000501D40AE06D1CCF
:1027A0004D450DDA8542FADB18F805100029F6D1FF
:1027B00006E06D1C8542FCDB18F805100029F8D1F5
:1027C0002E4404E018F8010B52460D9990476D1EF7
:1027D000F8D277E000200A90C5F302504FF00A0BC0
:1027E00002280CD001CFC117021E71F100020CDAD1
:1027F0000023D0EB030063EB01012D2208E0FF1D55
:1028000027F00707F7E80201EEE72A0504D52B2297
:102810008DF82420012203E0EA070FD02022F7E7F9
:102820000DF12008089218E000200A90C5F302502C
:102830004FF00A0B022803D001CF00210022EFE75E
:10284000FF1D27F00707F7E80201F7E75A460A9B42
:10285000FDF7B3FC303208F8012D50EA0102F5D142
:10286000ADEB080000F1200B680701D44FF001091F
:10287000D94502DDA9EB0B0000E0002081460025D0
:1028800006E009A85246405D0D9990476D1C761CE4
:1028900008988542F5DB04E0302052460D999047B8
:1028A000761CB9F10001A9F10109F5DC05E018F881
:1028B000010B52460D999047761CBBF10001ABF11C
:1028C000010BF4DC641CFAE6092801000A68531CB9
:1028D0000B60107070470000FEF7B2F8FFF724FCA1
:1028E000FFF74CFAFFF7F6FAFFF73CF8FDF7CCFEDE
:1028F00000BFFEF793F88E490860FEF78FF88D4908
:10290000086000208C4908708C4908808C49088038
:102910008C4908708C49087008E1FFF7EDFB01282D
:1029200071D1FFF7FFFAFFF749FA84480088401C8D
:102930008249088082480088401C81490880834879
:10294000018983488088084400B28049088108468C
:10295000818C7F488089084401B27C488184794811
:10296000007800284FD07B48007804284BD1744869
:1029700000887449097890FBF1F201FB12000028ED
:1029800041D10124002511E073480078204038B17E
:10299000C5EBC5016D4A02EB81002946FEF752FFE7
:1029A0004FF6FF7000EA4404681CC5B2022DEBDB51
:1029B00001206A49087004204870032088700420B0
:1029C000C8706248C088000A08716048817963480D
:1029D00041715E480089010A604881715B48017A53
:1029E0005E48C171C078001DC1B25C48FEF79CFF13
:1029F00004462112594801724472C078801DC1B248
:102A00005648FFF7F5FA4D480088B0F5FA7F73D1C4
:102A10005048007801282BD15049087048708870C0
:102A200043484FA102684D48001DFFF715FE4B4873
:102A3000001DFDF7BBFB4949C8700846C078001D62
:102A4000C1B24648FEF770FF044621124348C278DF
:102A5000001D8154001FC078401C4049091D0C54C2
:102A6000081FC078801DC1B23C48FFF7C1FA47E09B
:102A700038480078022840D10120384908700220E7
:102A80004870002088700820C87031480068000E27
:102A900008712F480068010C304841712C480088AB
:102AA000010A2E4881712A4801782C48C1712848B2
:102AB0008068010E2948017225488068010C27486A
:102AC000417223480089010A244881722048017A12
:102AD0002248C172C078001DC1B22048FEF724FF11
:102AE000044621121D4801734473C078801DC1B291
:102AF0001A48FFF77DFA03E018E01848FDF79EFD3D
:102B000000200E4908801048007818B1202015498F
:102B1000086003E04FF40010124908600A4800788A
:102B200008B9012000E0002007490870F5E6000020
:102B30000400002008000020000000200C000020FD
:102B40000E0000202C000020100000209C0100201E
:102B5000F80000202E0000202B000020740100202F
:102B6000256C6400100C0140000000000000000013
:102B70000102030406070809000000000102030423
:102B8000000000400008004000C1814001C08041B9
:102B900001C0804100C1814001C0804100C181402D
:102BA00000C1814001C0804101C0804100C181401D
:102BB00000C1814001C0804100C1814001C080410D
:102BC00001C0804100C1814001C0804100C18140FD
:102BD00000C1814001C0804100C1814001C08041ED
:102BE00001C0804100C1814000C1814001C08041DD
:102BF00001C0804100C1814001C0804100C18140CD
:102C000000C1814001C0804101C0804100C18140BC
:102C100000C1814001C0804100C1814001C08041AC
:102C200001C0804100C1814000C1814001C080419C
:102C300001C0804100C1814001C0804100C181408C
:102C400000C1814001C0804100C1814001C080417C
:102C500001C0804100C1814001C0804100C181406C
:102C600000C1814001C0804101C0804100C181405C
:102C700000C1814001C0804100C1814001C080414C
:102C800001C0804100C1814000C0C101C30302C234
:102C9000C60607C705C5C404CC0C0DCD0FCFCE0E9C
:102CA0000ACACB0BC90908C8D81819D91BDBDA1A0C
:102CB0001EDEDF1FDD1D1CDC14D4D515D71716D67C
:102CC000D21213D311D1D010F03031F133F3F232EC
:102CD00036F6F737F53534F43CFCFD3DFF3F3EFE5C
:102CE000FA3A3BFB39F9F83828E8E929EB2B2AEACC
:102CF000EE2E2FEF2DEDEC2CE42425E527E7E6263C
:102D000022E2E323E12120E0A06061A163A3A262AB
:102D100066A6A767A56564A46CACAD6DAF6F6EAE1B
:102D2000AA6A6BAB69A9A86878B8B979BB7B7ABA8B
:102D3000BE7E7FBF7DBDBC7CB47475B577B7B676FB
:102D400072B2B373B17170B050909151935352926B
:102D500096565797559594549C5C5D9D5F9F9E5EDB
:102D60005A9A9B5B99595898884849894B8B8A4A4B
:102D70004E8E8F4F8D4D4C8C4484854587474686BB
:102D80008242438341818040351B0008811B00083B
:102D9000B02D000800000020380000008026000848
:102DA000E82D000838000020A0050000902600084B
:102DB0000000000000000000000000000000000013
:102DC00000000000000000001000000001000000F2
:102DD00000A24A0400000000000000000000000003
:082DE0000000000000000000EB
:0400000508000131BD
:00000001FF
